{
  "_format": "hh-sol-artifact-1",
  "contractName": "HiLo",
  "sourceName": "contracts/plusheaven.sol",
  "abi": [
    {
      "inputs": [],
      "stateMutability": "nonpayable",
      "type": "constructor"
    },
    {
      "anonymous": false,
      "inputs": [
        {
          "indexed": true,
          "internalType": "address",
          "name": "previousOwner",
          "type": "address"
        },
        {
          "indexed": true,
          "internalType": "address",
          "name": "newOwner",
          "type": "address"
        }
      ],
      "name": "OwnershipTransferred",
      "type": "event"
    },
    {
      "inputs": [],
      "name": "currentGameId",
      "outputs": [
        {
          "internalType": "uint256",
          "name": "",
          "type": "uint256"
        }
      ],
      "stateMutability": "view",
      "type": "function"
    },
    {
      "inputs": [
        {
          "internalType": "uint256",
          "name": "gameId",
          "type": "uint256"
        }
      ],
      "name": "deposit",
      "outputs": [],
      "stateMutability": "payable",
      "type": "function"
    },
    {
      "inputs": [],
      "name": "getBalance",
      "outputs": [
        {
          "internalType": "uint256",
          "name": "",
          "type": "uint256"
        }
      ],
      "stateMutability": "view",
      "type": "function"
    },
    {
      "inputs": [],
      "name": "owner",
      "outputs": [
        {
          "internalType": "address",
          "name": "",
          "type": "address"
        }
      ],
      "stateMutability": "view",
      "type": "function"
    },
    {
      "inputs": [],
      "name": "renounceOwnership",
      "outputs": [],
      "stateMutability": "nonpayable",
      "type": "function"
    },
    {
      "inputs": [
        {
          "internalType": "address payable",
          "name": "recipient",
          "type": "address"
        },
        {
          "internalType": "uint256",
          "name": "amount",
          "type": "uint256"
        }
      ],
      "name": "send",
      "outputs": [],
      "stateMutability": "payable",
      "type": "function"
    },
    {
      "inputs": [
        {
          "internalType": "address",
          "name": "newOwner",
          "type": "address"
        }
      ],
      "name": "transferOwnership",
      "outputs": [],
      "stateMutability": "nonpayable",
      "type": "function"
    },
    {
      "inputs": [],
      "name": "withdraw",
      "outputs": [],
      "stateMutability": "payable",
      "type": "function"
    }
  ],
  "bytecode": "0x608060405234801561001057600080fd5b5061002d61002261003a60201b60201c565b61004260201b60201c565b6000600281905550610106565b600033905090565b60008060009054906101000a900473ffffffffffffffffffffffffffffffffffffffff169050816000806101000a81548173ffffffffffffffffffffffffffffffffffffffff021916908373ffffffffffffffffffffffffffffffffffffffff1602179055508173ffffffffffffffffffffffffffffffffffffffff168173ffffffffffffffffffffffffffffffffffffffff167f8be0079c531659141344cd1fd0a4f28419497f9722a3daafe3b4186f6b6457e060405160405180910390a35050565b610bae806101156000396000f3fe60806040526004361061007b5760003560e01c80638da5cb5b1161004e5780638da5cb5b146100f7578063b6b55f2514610122578063d0679d341461013e578063f2fde38b1461015a5761007b565b806312065fe0146100805780633ccfd60b146100ab578063536a3ddc146100b5578063715018a6146100e0575b600080fd5b34801561008c57600080fd5b50610095610183565b6040516100a291906106a1565b60405180910390f35b6100b361018b565b005b3480156100c157600080fd5b506100ca6101dc565b6040516100d791906106a1565b60405180910390f35b3480156100ec57600080fd5b506100f56101e2565b005b34801561010357600080fd5b5061010c6101f6565b60405161011991906106fd565b60405180910390f35b61013c60048036038101906101379190610749565b61021f565b005b610158600480360381019061015391906107b4565b6102c9565b005b34801561016657600080fd5b50610181600480360381019061017c9190610820565b6104ba565b005b600047905090565b61019361053e565b3373ffffffffffffffffffffffffffffffffffffffff166108fc479081150290604051600060405180830381858888f193505050501580156101d9573d6000803e3d6000fd5b50565b60025481565b6101ea61053e565b6101f460006105bc565b565b60008060009054906101000a900473ffffffffffffffffffffffffffffffffffffffff16905090565b343373ffffffffffffffffffffffffffffffffffffffff16311015610279576040517f08c379a0000000000000000000000000000000000000000000000000000000008152600401610270906108aa565b60405180910390fd5b80600281905550600254600160003373ffffffffffffffffffffffffffffffffffffffff1673ffffffffffffffffffffffffffffffffffffffff1681526020019081526020016000208190555050565b6102d161053e565b600254600160008473ffffffffffffffffffffffffffffffffffffffff1673ffffffffffffffffffffffffffffffffffffffff1681526020019081526020016000205414610354576040517f08c379a000000000000000000000000000000000000000000000000000000000815260040161034b90610916565b60405180910390fd5b80471015610397576040517f08c379a000000000000000000000000000000000000000000000000000000000815260040161038e906108aa565b60405180910390fd5b8173ffffffffffffffffffffffffffffffffffffffff163373ffffffffffffffffffffffffffffffffffffffff161415610406576040517f08c379a00000000000000000000000000000000000000000000000000000000081526004016103fd906109a8565b60405180910390fd5b6000808373ffffffffffffffffffffffffffffffffffffffff168360405161042d906109f9565b60006040518083038185875af1925050503d806000811461046a576040519150601f19603f3d011682016040523d82523d6000602084013e61046f565b606091505b5091509150816104b4576040517f08c379a00000000000000000000000000000000000000000000000000000000081526004016104ab90610a5a565b60405180910390fd5b50505050565b6104c261053e565b600073ffffffffffffffffffffffffffffffffffffffff168173ffffffffffffffffffffffffffffffffffffffff161415610532576040517f08c379a000000000000000000000000000000000000000000000000000000000815260040161052990610aec565b60405180910390fd5b61053b816105bc565b50565b610546610680565b73ffffffffffffffffffffffffffffffffffffffff166105646101f6565b73ffffffffffffffffffffffffffffffffffffffff16146105ba576040517f08c379a00000000000000000000000000000000000000000000000000000000081526004016105b190610b58565b60405180910390fd5b565b60008060009054906101000a900473ffffffffffffffffffffffffffffffffffffffff169050816000806101000a81548173ffffffffffffffffffffffffffffffffffffffff021916908373ffffffffffffffffffffffffffffffffffffffff1602179055508173ffffffffffffffffffffffffffffffffffffffff168173ffffffffffffffffffffffffffffffffffffffff167f8be0079c531659141344cd1fd0a4f28419497f9722a3daafe3b4186f6b6457e060405160405180910390a35050565b600033905090565b6000819050919050565b61069b81610688565b82525050565b60006020820190506106b66000830184610692565b92915050565b600073ffffffffffffffffffffffffffffffffffffffff82169050919050565b60006106e7826106bc565b9050919050565b6106f7816106dc565b82525050565b600060208201905061071260008301846106ee565b92915050565b600080fd5b61072681610688565b811461073157600080fd5b50565b6000813590506107438161071d565b92915050565b60006020828403121561075f5761075e610718565b5b600061076d84828501610734565b91505092915050565b6000610781826106bc565b9050919050565b61079181610776565b811461079c57600080fd5b50565b6000813590506107ae81610788565b92915050565b600080604083850312156107cb576107ca610718565b5b60006107d98582860161079f565b92505060206107ea85828601610734565b9150509250929050565b6107fd816106dc565b811461080857600080fd5b50565b60008135905061081a816107f4565b92915050565b60006020828403121561083657610835610718565b5b60006108448482850161080b565b91505092915050565b600082825260208201905092915050565b7f496e73756666696369656e742042616c616e6365000000000000000000000000600082015250565b600061089460148361084d565b915061089f8261085e565b602082019050919050565b600060208201905081810360008301526108c381610887565b9050919050565b7f4e6f206265747320706c6163656420666f72207468697320726f756e64000000600082015250565b6000610900601d8361084d565b915061090b826108ca565b602082019050919050565b6000602082019050818103600083015261092f816108f3565b9050919050565b7f596f752063616e27742073656e64206d6f6e657920746f20796f757273656c6660008201527f2100000000000000000000000000000000000000000000000000000000000000602082015250565b600061099260218361084d565b915061099d82610936565b604082019050919050565b600060208201905081810360008301526109c181610985565b9050919050565b600081905092915050565b50565b60006109e36000836109c8565b91506109ee826109d3565b600082019050919050565b6000610a04826109d6565b9150819050919050565b7f4661696c656420746f2073656e64204574686572000000000000000000000000600082015250565b6000610a4460148361084d565b9150610a4f82610a0e565b602082019050919050565b60006020820190508181036000830152610a7381610a37565b9050919050565b7f4f776e61626c653a206e6577206f776e657220697320746865207a65726f206160008201527f6464726573730000000000000000000000000000000000000000000000000000602082015250565b6000610ad660268361084d565b9150610ae182610a7a565b604082019050919050565b60006020820190508181036000830152610b0581610ac9565b9050919050565b7f4f776e61626c653a2063616c6c6572206973206e6f7420746865206f776e6572600082015250565b6000610b4260208361084d565b9150610b4d82610b0c565b602082019050919050565b60006020820190508181036000830152610b7181610b35565b905091905056fea26469706673582212206c4eb9d4dc240f84c743ec70a49f27a9421cbccd3d9c5997b219bf8210a6374f64736f6c63430008090033",
  "linkReferences": {},
  "deployedLinkReferences": {}
}